{
  "_format": "hh-sol-artifact-1",
  "contractName": "RebaseEngine",
  "sourceName": "contracts/rebase engine/RebaseEngine.sol",
  "abi": [
    {
      "anonymous": false,
      "inputs": [
        {
          "indexed": true,
          "internalType": "address",
          "name": "previousOwner",
          "type": "address"
        },
        {
          "indexed": true,
          "internalType": "address",
          "name": "newOwner",
          "type": "address"
        }
      ],
      "name": "OwnershipTransferred",
      "type": "event"
    },
    {
      "inputs": [
        {
          "internalType": "address",
          "name": "account",
          "type": "address"
        }
      ],
      "name": "addWhitelist",
      "outputs": [],
      "stateMutability": "nonpayable",
      "type": "function"
    },
    {
      "inputs": [],
      "name": "database",
      "outputs": [
        {
          "internalType": "contract StakingDatabase",
          "name": "",
          "type": "address"
        }
      ],
      "stateMutability": "view",
      "type": "function"
    },
    {
      "inputs": [
        {
          "internalType": "contract INetworkDemand",
          "name": "_networkDemand",
          "type": "address"
        },
        {
          "internalType": "contract StakingDatabase",
          "name": "_database",
          "type": "address"
        }
      ],
      "name": "initialize",
      "outputs": [],
      "stateMutability": "nonpayable",
      "type": "function"
    },
    {
      "inputs": [],
      "name": "networkDemand",
      "outputs": [
        {
          "internalType": "contract INetworkDemand",
          "name": "",
          "type": "address"
        }
      ],
      "stateMutability": "view",
      "type": "function"
    },
    {
      "inputs": [],
      "name": "owner",
      "outputs": [
        {
          "internalType": "address",
          "name": "",
          "type": "address"
        }
      ],
      "stateMutability": "view",
      "type": "function"
    },
    {
      "inputs": [
        {
          "internalType": "address",
          "name": "user",
          "type": "address"
        }
      ],
      "name": "rebase",
      "outputs": [],
      "stateMutability": "nonpayable",
      "type": "function"
    },
    {
      "inputs": [],
      "name": "rebasePool",
      "outputs": [],
      "stateMutability": "nonpayable",
      "type": "function"
    },
    {
      "inputs": [
        {
          "internalType": "address",
          "name": "account",
          "type": "address"
        }
      ],
      "name": "removeWhitelist",
      "outputs": [],
      "stateMutability": "nonpayable",
      "type": "function"
    },
    {
      "inputs": [],
      "name": "renounceOwnership",
      "outputs": [],
      "stateMutability": "nonpayable",
      "type": "function"
    },
    {
      "inputs": [
        {
          "internalType": "address",
          "name": "newOwner",
          "type": "address"
        }
      ],
      "name": "transferOwnership",
      "outputs": [],
      "stateMutability": "nonpayable",
      "type": "function"
    },
    {
      "inputs": [
        {
          "internalType": "contract StakingDatabase",
          "name": "_database",
          "type": "address"
        }
      ],
      "name": "updateDatabase",
      "outputs": [],
      "stateMutability": "nonpayable",
      "type": "function"
    },
    {
      "inputs": [
        {
          "internalType": "contract INetworkDemand",
          "name": "_networkDemand",
          "type": "address"
        }
      ],
      "name": "updateNetworkDemand",
      "outputs": [],
      "stateMutability": "nonpayable",
      "type": "function"
    },
    {
      "inputs": [
        {
          "internalType": "address",
          "name": "",
          "type": "address"
        }
      ],
      "name": "whitelists",
      "outputs": [
        {
          "internalType": "bool",
          "name": "",
          "type": "bool"
        }
      ],
      "stateMutability": "view",
      "type": "function"
    }
  ],
  "bytecode": "0x60806040523480156200001157600080fd5b5062000032620000266200003860201b60201c565b6200004060201b60201c565b62000104565b600033905090565b60008060009054906101000a900473ffffffffffffffffffffffffffffffffffffffff169050816000806101000a81548173ffffffffffffffffffffffffffffffffffffffff021916908373ffffffffffffffffffffffffffffffffffffffff1602179055508173ffffffffffffffffffffffffffffffffffffffff168173ffffffffffffffffffffffffffffffffffffffff167f8be0079c531659141344cd1fd0a4f28419497f9722a3daafe3b4186f6b6457e060405160405180910390a35050565b6126bc80620001146000396000f3fe608060405234801561001057600080fd5b50600436106100cf5760003560e01c806378c8cda71161008c578063c4ef3e8611610066578063c4ef3e86146101c6578063d0df1374146101e2578063f2fde38b146101fe578063f80f5dd51461021a576100cf565b806378c8cda7146101825780638da5cb5b1461019e578063c0cdd211146101bc576100cf565b806306bedbad146100d45780631e7be210146100f0578063485cc95514610120578063587361161461013c578063713b563f1461015a578063715018a614610178575b600080fd5b6100ee60048036038101906100e99190611ef6565b610236565b005b61010a60048036038101906101059190611e3f565b610306565b6040516101179190612246565b60405180910390f35b61013a60048036038101906101359190611eba565b610326565b005b610144610493565b6040516101519190612261565b60405180910390f35b6101626104b9565b60405161016f919061227c565b60405180910390f35b6101806104df565b005b61019c60048036038101906101979190611e3f565b610567565b005b6101a6610704565b6040516101b391906121e6565b60405180910390f35b6101c461072d565b005b6101e060048036038101906101db9190611e91565b6107c3565b005b6101fc60048036038101906101f79190611e3f565b610893565b005b61021860048036038101906102139190611e3f565b610933565b005b610234600480360381019061022f9190611e3f565b610a2b565b005b600360003373ffffffffffffffffffffffffffffffffffffffff1673ffffffffffffffffffffffffffffffffffffffff16815260200190815260200160002060009054906101000a900460ff166102c2576040517f08c379a00000000000000000000000000000000000000000000000000000000081526004016102b9906122d7565b60405180910390fd5b80600260006101000a81548173ffffffffffffffffffffffffffffffffffffffff021916908373ffffffffffffffffffffffffffffffffffffffff16021790555050565b60036020528060005260406000206000915054906101000a900460ff1681565b61032e610b3c565b73ffffffffffffffffffffffffffffffffffffffff1661034c610704565b73ffffffffffffffffffffffffffffffffffffffff16146103a2576040517f08c379a0000000000000000000000000000000000000000000000000000000008152600401610399906122f7565b60405180910390fd5b600260149054906101000a900460ff16156103f2576040517f08c379a00000000000000000000000000000000000000000000000000000000081526004016103e990612317565b60405180910390fd5b81600160006101000a81548173ffffffffffffffffffffffffffffffffffffffff021916908373ffffffffffffffffffffffffffffffffffffffff16021790555080600260006101000a81548173ffffffffffffffffffffffffffffffffffffffff021916908373ffffffffffffffffffffffffffffffffffffffff1602179055506001600260146101000a81548160ff0219169083151502179055505050565b600160009054906101000a900473ffffffffffffffffffffffffffffffffffffffff1681565b600260009054906101000a900473ffffffffffffffffffffffffffffffffffffffff1681565b6104e7610b3c565b73ffffffffffffffffffffffffffffffffffffffff16610505610704565b73ffffffffffffffffffffffffffffffffffffffff161461055b576040517f08c379a0000000000000000000000000000000000000000000000000000000008152600401610552906122f7565b60405180910390fd5b6105656000610b44565b565b61056f610b3c565b73ffffffffffffffffffffffffffffffffffffffff1661058d610704565b73ffffffffffffffffffffffffffffffffffffffff16146105e3576040517f08c379a00000000000000000000000000000000000000000000000000000000081526004016105da906122f7565b60405180910390fd5b600073ffffffffffffffffffffffffffffffffffffffff168173ffffffffffffffffffffffffffffffffffffffff16141561061d57600080fd5b600360008273ffffffffffffffffffffffffffffffffffffffff1673ffffffffffffffffffffffffffffffffffffffff16815260200190815260200160002060009054906101000a900460ff166106a9576040517f08c379a00000000000000000000000000000000000000000000000000000000081526004016106a0906122b7565b60405180910390fd5b6000600360008373ffffffffffffffffffffffffffffffffffffffff1673ffffffffffffffffffffffffffffffffffffffff16815260200190815260200160002060006101000a81548160ff02191690831515021790555050565b60008060009054906101000a900473ffffffffffffffffffffffffffffffffffffffff16905090565b600360003373ffffffffffffffffffffffffffffffffffffffff1673ffffffffffffffffffffffffffffffffffffffff16815260200190815260200160002060009054906101000a900460ff166107b9576040517f08c379a00000000000000000000000000000000000000000000000000000000081526004016107b0906122d7565b60405180910390fd5b6107c1610c08565b565b600360003373ffffffffffffffffffffffffffffffffffffffff1673ffffffffffffffffffffffffffffffffffffffff16815260200190815260200160002060009054906101000a900460ff1661084f576040517f08c379a0000000000000000000000000000000000000000000000000000000008152600401610846906122d7565b60405180910390fd5b80600160006101000a81548173ffffffffffffffffffffffffffffffffffffffff021916908373ffffffffffffffffffffffffffffffffffffffff16021790555050565b600360003373ffffffffffffffffffffffffffffffffffffffff1673ffffffffffffffffffffffffffffffffffffffff16815260200190815260200160002060009054906101000a900460ff1661091f576040517f08c379a0000000000000000000000000000000000000000000000000000000008152600401610916906122d7565b60405180910390fd5b610927610c08565b61093081611985565b50565b61093b610b3c565b73ffffffffffffffffffffffffffffffffffffffff16610959610704565b73ffffffffffffffffffffffffffffffffffffffff16146109af576040517f08c379a00000000000000000000000000000000000000000000000000000000081526004016109a6906122f7565b60405180910390fd5b600073ffffffffffffffffffffffffffffffffffffffff168173ffffffffffffffffffffffffffffffffffffffff161415610a1f576040517f08c379a0000000000000000000000000000000000000000000000000000000008152600401610a1690612297565b60405180910390fd5b610a2881610b44565b50565b610a33610b3c565b73ffffffffffffffffffffffffffffffffffffffff16610a51610704565b73ffffffffffffffffffffffffffffffffffffffff1614610aa7576040517f08c379a0000000000000000000000000000000000000000000000000000000008152600401610a9e906122f7565b60405180910390fd5b600073ffffffffffffffffffffffffffffffffffffffff168173ffffffffffffffffffffffffffffffffffffffff161415610ae157600080fd5b6001600360008373ffffffffffffffffffffffffffffffffffffffff1673ffffffffffffffffffffffffffffffffffffffff16815260200190815260200160002060006101000a81548160ff02191690831515021790555050565b600033905090565b60008060009054906101000a900473ffffffffffffffffffffffffffffffffffffffff169050816000806101000a81548173ffffffffffffffffffffffffffffffffffffffff021916908373ffffffffffffffffffffffffffffffffffffffff1602179055508173ffffffffffffffffffffffffffffffffffffffff168173ffffffffffffffffffffffffffffffffffffffff167f8be0079c531659141344cd1fd0a4f28419497f9722a3daafe3b4186f6b6457e060405160405180910390a35050565b6000600260009054906101000a900473ffffffffffffffffffffffffffffffffffffffff1673ffffffffffffffffffffffffffffffffffffffff1663026b1d5f6040518163ffffffff1660e01b815260040160a06040518083038186803b158015610c7257600080fd5b505afa158015610c86573d6000803e3d6000fd5b505050506040513d601f19601f82011682018060405250810190610caa9190611f48565b90506000600260009054906101000a900473ffffffffffffffffffffffffffffffffffffffff1673ffffffffffffffffffffffffffffffffffffffff1663e040b36e6040518163ffffffff1660e01b815260040160206040518083038186803b158015610d1657600080fd5b505afa158015610d2a573d6000803e3d6000fd5b505050506040513d601f19601f82011682018060405250810190610d4e9190611e68565b8015610dfc5750600260009054906101000a900473ffffffffffffffffffffffffffffffffffffffff1673ffffffffffffffffffffffffffffffffffffffff1663478a70006040518163ffffffff1660e01b815260040160206040518083038186803b158015610dbd57600080fd5b505afa158015610dd1573d6000803e3d6000fd5b505050506040513d601f19601f82011682018060405250810190610df59190611f9a565b8260400151115b15610e08575050611983565b600260009054906101000a900473ffffffffffffffffffffffffffffffffffffffff1673ffffffffffffffffffffffffffffffffffffffff1663e040b36e6040518163ffffffff1660e01b815260040160206040518083038186803b158015610e7057600080fd5b505afa158015610e84573d6000803e3d6000fd5b505050506040513d601f19601f82011682018060405250810190610ea89190611e68565b8015610f565750600260009054906101000a900473ffffffffffffffffffffffffffffffffffffffff1673ffffffffffffffffffffffffffffffffffffffff1663478a70006040518163ffffffff1660e01b815260040160206040518083038186803b158015610f1757600080fd5b505afa158015610f2b573d6000803e3d6000fd5b505050506040513d601f19601f82011682018060405250810190610f4f9190611f9a565b8260400151105b1561100257600260009054906101000a900473ffffffffffffffffffffffffffffffffffffffff1673ffffffffffffffffffffffffffffffffffffffff1663478a70006040518163ffffffff1660e01b815260040160206040518083038186803b158015610fc357600080fd5b505afa158015610fd7573d6000803e3d6000fd5b505050506040513d601f19601f82011682018060405250810190610ffb9190611f9a565b9050611006565b4290505b6000600160009054906101000a900473ffffffffffffffffffffffffffffffffffffffff1673ffffffffffffffffffffffffffffffffffffffff16639cb20ee76040518163ffffffff1660e01b815260040160206040518083038186803b15801561107057600080fd5b505afa158015611084573d6000803e3d6000fd5b505050506040513d601f19601f820116820180604052508101906110a89190611f9a565b9050600260009054906101000a900473ffffffffffffffffffffffffffffffffffffffff1673ffffffffffffffffffffffffffffffffffffffff16633d01f0ff82846040518363ffffffff1660e01b8152600401611107929190612352565b600060405180830381600087803b15801561112157600080fd5b505af1158015611135573d6000803e3d6000fd5b505050506000600260009054906101000a900473ffffffffffffffffffffffffffffffffffffffff1673ffffffffffffffffffffffffffffffffffffffff1663fb8b03966040518163ffffffff1660e01b815260040160206040518083038186803b1580156111a357600080fd5b505afa1580156111b7573d6000803e3d6000fd5b505050506040513d601f19601f820116820180604052508101906111db9190611f9a565b90506000600260009054906101000a900473ffffffffffffffffffffffffffffffffffffffff1673ffffffffffffffffffffffffffffffffffffffff16631279f91a6040518163ffffffff1660e01b815260040160206040518083038186803b15801561124757600080fd5b505afa15801561125b573d6000803e3d6000fd5b505050506040513d601f19601f8201168201806040525081019061127f9190611f9a565b600260009054906101000a900473ffffffffffffffffffffffffffffffffffffffff1673ffffffffffffffffffffffffffffffffffffffff16632406464a6040518163ffffffff1660e01b815260040160206040518083038186803b1580156112e757600080fd5b505afa1580156112fb573d6000803e3d6000fd5b505050506040513d601f19601f8201168201806040525081019061131f9190611f9a565b8561132a919061249e565b836113359190612444565b61133f9190612413565b9050600260009054906101000a900473ffffffffffffffffffffffffffffffffffffffff1673ffffffffffffffffffffffffffffffffffffffff1663e878ec9b826040518263ffffffff1660e01b815260040161139c9190612337565b600060405180830381600087803b1580156113b657600080fd5b505af11580156113ca573d6000803e3d6000fd5b50505050600080600260009054906101000a900473ffffffffffffffffffffffffffffffffffffffff1673ffffffffffffffffffffffffffffffffffffffff1663a26e9f906040518163ffffffff1660e01b815260040160206040518083038186803b15801561143957600080fd5b505afa15801561144d573d6000803e3d6000fd5b505050506040513d601f19601f820116820180604052508101906114719190611f9a565b1480611481575060008660600151145b6115485785606001516305f5e100600260009054906101000a900473ffffffffffffffffffffffffffffffffffffffff1673ffffffffffffffffffffffffffffffffffffffff1663a26e9f906040518163ffffffff1660e01b815260040160206040518083038186803b1580156114f757600080fd5b505afa15801561150b573d6000803e3d6000fd5b505050506040513d601f19601f8201168201806040525081019061152f9190611f9a565b6115399190612444565b6115439190612413565b61154b565b60005b905060008482848661155d919061249e565b61156791906123bd565b6115719190612444565b90506000600260009054906101000a900473ffffffffffffffffffffffffffffffffffffffff1673ffffffffffffffffffffffffffffffffffffffff16631279f91a6040518163ffffffff1660e01b815260040160206040518083038186803b1580156115dd57600080fd5b505afa1580156115f1573d6000803e3d6000fd5b505050506040513d601f19601f820116820180604052508101906116159190611f9a565b826116209190612413565b9050600260009054906101000a900473ffffffffffffffffffffffffffffffffffffffff1673ffffffffffffffffffffffffffffffffffffffff1663939da540826040518263ffffffff1660e01b815260040161167d9190612337565b600060405180830381600087803b15801561169757600080fd5b505af11580156116ab573d6000803e3d6000fd5b505050506000808960400151146116d1578860400151886116cc919061249e565b6116d4565b60005b90506000600260009054906101000a900473ffffffffffffffffffffffffffffffffffffffff1673ffffffffffffffffffffffffffffffffffffffff16630917e7766040518163ffffffff1660e01b815260040160206040518083038186803b15801561174057600080fd5b505afa158015611754573d6000803e3d6000fd5b505050506040513d601f19601f820116820180604052508101906117789190611f9a565b905060006907c46359831e7e660dcb90506000600260009054906101000a900473ffffffffffffffffffffffffffffffffffffffff1673ffffffffffffffffffffffffffffffffffffffff16633f10887d6040518163ffffffff1660e01b815260040160206040518083038186803b1580156117f357600080fd5b505afa158015611807573d6000803e3d6000fd5b505050506040513d601f19601f8201168201806040525081019061182b9190611f9a565b14156118bf57600260009054906101000a900473ffffffffffffffffffffffffffffffffffffffff1673ffffffffffffffffffffffffffffffffffffffff16632bbe058d826040518263ffffffff1660e01b815260040161188c9190612337565b600060405180830381600087803b1580156118a657600080fd5b505af11580156118ba573d6000803e3d6000fd5b505050505b60008083116118cf5760006118e7565b8284866118dc9190612444565b6118e69190612413565b5b9050600260009054906101000a900473ffffffffffffffffffffffffffffffffffffffff1673ffffffffffffffffffffffffffffffffffffffff16632bbe058d826040518263ffffffff1660e01b81526004016119449190612337565b600060405180830381600087803b15801561195e57600080fd5b505af1158015611972573d6000803e3d6000fd5b505050505050505050505050505050505b565b6000600260009054906101000a900473ffffffffffffffffffffffffffffffffffffffff1673ffffffffffffffffffffffffffffffffffffffff1663bbadc93a836040518263ffffffff1660e01b81526004016119e291906121e6565b60c06040518083038186803b1580156119fa57600080fd5b505afa158015611a0e573d6000803e3d6000fd5b505050506040513d601f19601f82011682018060405250810190611a329190611f71565b90506000600260009054906101000a900473ffffffffffffffffffffffffffffffffffffffff1673ffffffffffffffffffffffffffffffffffffffff16633f10887d6040518163ffffffff1660e01b815260040160206040518083038186803b158015611a9e57600080fd5b505afa158015611ab2573d6000803e3d6000fd5b505050506040513d601f19601f82011682018060405250810190611ad69190611f9a565b905060006907c46359831e7e660dcb905060008360600151905060006305f5e1008560000151838587611b09919061249e565b611b13919061249e565b611b1d9190612444565b611b279190612413565b9050600260009054906101000a900473ffffffffffffffffffffffffffffffffffffffff1673ffffffffffffffffffffffffffffffffffffffff1663c5d36c3d8783600260009054906101000a900473ffffffffffffffffffffffffffffffffffffffff1673ffffffffffffffffffffffffffffffffffffffff16634b0c3b7d6040518163ffffffff1660e01b8152600401604080518083038186803b158015611bd057600080fd5b505afa158015611be4573d6000803e3d6000fd5b505050506040513d601f19601f82011682018060405250810190611c089190611f1f565b60000151886040518563ffffffff1660e01b8152600401611c2c9493929190612201565b600060405180830381600087803b158015611c4657600080fd5b505af1158015611c5a573d6000803e3d6000fd5b50505050505050505050565b600081359050611c7581612613565b92915050565b600081519050611c8a8161262a565b92915050565b600081359050611c9f81612641565b92915050565b600081359050611cb481612658565b92915050565b600060408284031215611ccc57600080fd5b611cd6604061237b565b90506000611ce684828501611e2a565b6000830152506020611cfa84828501611e2a565b60208301525092915050565b600060a08284031215611d1857600080fd5b611d2260a061237b565b90506000611d3284828501611e2a565b6000830152506020611d4684828501611e2a565b6020830152506040611d5a84828501611e2a565b6040830152506060611d6e84828501611e2a565b6060830152506080611d8284828501611e2a565b60808301525092915050565b600060c08284031215611da057600080fd5b611daa60c061237b565b90506000611dba84828501611e2a565b6000830152506020611dce84828501611e2a565b6020830152506040611de284828501611e2a565b6040830152506060611df684828501611e2a565b6060830152506080611e0a84828501611e2a565b60808301525060a0611e1e84828501611e2a565b60a08301525092915050565b600081519050611e398161266f565b92915050565b600060208284031215611e5157600080fd5b6000611e5f84828501611c66565b91505092915050565b600060208284031215611e7a57600080fd5b6000611e8884828501611c7b565b91505092915050565b600060208284031215611ea357600080fd5b6000611eb184828501611c90565b91505092915050565b60008060408385031215611ecd57600080fd5b6000611edb85828601611c90565b9250506020611eec85828601611ca5565b9150509250929050565b600060208284031215611f0857600080fd5b6000611f1684828501611ca5565b91505092915050565b600060408284031215611f3157600080fd5b6000611f3f84828501611cba565b91505092915050565b600060a08284031215611f5a57600080fd5b6000611f6884828501611d06565b91505092915050565b600060c08284031215611f8357600080fd5b6000611f9184828501611d8e565b91505092915050565b600060208284031215611fac57600080fd5b6000611fba84828501611e2a565b91505092915050565b611fcc816124d2565b82525050565b611fdb816124e4565b82525050565b611fea8161253e565b82525050565b611ff981612562565b82525050565b600061200c6026836123ac565b91507f4f776e61626c653a206e6577206f776e657220697320746865207a65726f206160008301527f64647265737300000000000000000000000000000000000000000000000000006020830152604082019050919050565b60006120726021836123ac565b91507f4163636f756e7420646f65736e7420657869737420696e2077686974656c697360008301527f74000000000000000000000000000000000000000000000000000000000000006020830152604082019050919050565b60006120d8602b836123ac565b91507f4e6f7420617574686f72697573656420746f206163636573732074686520726560008301527f6261736520656e67696e650000000000000000000000000000000000000000006020830152604082019050919050565b600061213e6020836123ac565b91507f4f776e61626c653a2063616c6c6572206973206e6f7420746865206f776e65726000830152602082019050919050565b600061217e6021836123ac565b91507f52656261736520456e67696e6520616c726561647920696e697469616c697a6560008301527f64000000000000000000000000000000000000000000000000000000000000006020830152604082019050919050565b6121e081612534565b82525050565b60006020820190506121fb6000830184611fc3565b92915050565b60006080820190506122166000830187611fc3565b61222360208301866121d7565b61223060408301856121d7565b61223d60608301846121d7565b95945050505050565b600060208201905061225b6000830184611fd2565b92915050565b60006020820190506122766000830184611fe1565b92915050565b60006020820190506122916000830184611ff0565b92915050565b600060208201905081810360008301526122b081611fff565b9050919050565b600060208201905081810360008301526122d081612065565b9050919050565b600060208201905081810360008301526122f0816120cb565b9050919050565b6000602082019050818103600083015261231081612131565b9050919050565b6000602082019050818103600083015261233081612171565b9050919050565b600060208201905061234c60008301846121d7565b92915050565b600060408201905061236760008301856121d7565b61237460208301846121d7565b9392505050565b6000604051905081810181811067ffffffffffffffff821117156123a2576123a16125e4565b5b8060405250919050565b600082825260208201905092915050565b60006123c882612534565b91506123d383612534565b9250827fffffffffffffffffffffffffffffffffffffffffffffffffffffffffffffffff0382111561240857612407612586565b5b828201905092915050565b600061241e82612534565b915061242983612534565b925082612439576124386125b5565b5b828204905092915050565b600061244f82612534565b915061245a83612534565b9250817fffffffffffffffffffffffffffffffffffffffffffffffffffffffffffffffff048311821515161561249357612492612586565b5b828202905092915050565b60006124a982612534565b91506124b483612534565b9250828210156124c7576124c6612586565b5b828203905092915050565b60006124dd82612514565b9050919050565b60008115159050919050565b60006124fb826124d2565b9050919050565b600061250d826124d2565b9050919050565b600073ffffffffffffffffffffffffffffffffffffffff82169050919050565b6000819050919050565b600061254982612550565b9050919050565b600061255b82612514565b9050919050565b600061256d82612574565b9050919050565b600061257f82612514565b9050919050565b7f4e487b7100000000000000000000000000000000000000000000000000000000600052601160045260246000fd5b7f4e487b7100000000000000000000000000000000000000000000000000000000600052601260045260246000fd5b7f4e487b7100000000000000000000000000000000000000000000000000000000600052604160045260246000fd5b61261c816124d2565b811461262757600080fd5b50565b612633816124e4565b811461263e57600080fd5b50565b61264a816124f0565b811461265557600080fd5b50565b61266181612502565b811461266c57600080fd5b50565b61267881612534565b811461268357600080fd5b5056fea264697066735822122023e4ad38e84079b9362f5e590782425b30b91630229651f80b463f1994783a1864736f6c63430008000033",
  "linkReferences": {},
  "deployedLinkReferences": {}
}