{
  "_format": "hh-sol-artifact-1",
  "contractName": "RebaseEngineV2",
  "sourceName": "contracts/v2/RebaseEngineV2.sol",
  "abi": [
    {
      "anonymous": false,
      "inputs": [
        {
          "indexed": true,
          "internalType": "address",
          "name": "previousOwner",
          "type": "address"
        },
        {
          "indexed": true,
          "internalType": "address",
          "name": "newOwner",
          "type": "address"
        }
      ],
      "name": "OwnershipTransferred",
      "type": "event"
    },
    {
      "inputs": [
        {
          "internalType": "address",
          "name": "account",
          "type": "address"
        }
      ],
      "name": "addWhitelist",
      "outputs": [],
      "stateMutability": "nonpayable",
      "type": "function"
    },
    {
      "inputs": [],
      "name": "database",
      "outputs": [
        {
          "internalType": "contract StakingDatabaseV2",
          "name": "",
          "type": "address"
        }
      ],
      "stateMutability": "view",
      "type": "function"
    },
    {
      "inputs": [
        {
          "internalType": "contract INetworkDemand",
          "name": "_networkDemand",
          "type": "address"
        },
        {
          "internalType": "contract StakingDatabaseV2",
          "name": "_database",
          "type": "address"
        }
      ],
      "name": "initialize",
      "outputs": [],
      "stateMutability": "nonpayable",
      "type": "function"
    },
    {
      "inputs": [],
      "name": "networkDemand",
      "outputs": [
        {
          "internalType": "contract INetworkDemand",
          "name": "",
          "type": "address"
        }
      ],
      "stateMutability": "view",
      "type": "function"
    },
    {
      "inputs": [],
      "name": "owner",
      "outputs": [
        {
          "internalType": "address",
          "name": "",
          "type": "address"
        }
      ],
      "stateMutability": "view",
      "type": "function"
    },
    {
      "inputs": [
        {
          "internalType": "address",
          "name": "user",
          "type": "address"
        }
      ],
      "name": "rebase",
      "outputs": [],
      "stateMutability": "nonpayable",
      "type": "function"
    },
    {
      "inputs": [],
      "name": "rebasePool",
      "outputs": [],
      "stateMutability": "nonpayable",
      "type": "function"
    },
    {
      "inputs": [
        {
          "internalType": "address",
          "name": "account",
          "type": "address"
        }
      ],
      "name": "removeWhitelist",
      "outputs": [],
      "stateMutability": "nonpayable",
      "type": "function"
    },
    {
      "inputs": [],
      "name": "renounceOwnership",
      "outputs": [],
      "stateMutability": "nonpayable",
      "type": "function"
    },
    {
      "inputs": [
        {
          "internalType": "address",
          "name": "newOwner",
          "type": "address"
        }
      ],
      "name": "transferOwnership",
      "outputs": [],
      "stateMutability": "nonpayable",
      "type": "function"
    },
    {
      "inputs": [
        {
          "internalType": "contract StakingDatabaseV2",
          "name": "_database",
          "type": "address"
        }
      ],
      "name": "updateDatabase",
      "outputs": [],
      "stateMutability": "nonpayable",
      "type": "function"
    },
    {
      "inputs": [
        {
          "internalType": "contract INetworkDemand",
          "name": "_networkDemand",
          "type": "address"
        }
      ],
      "name": "updateNetworkDemand",
      "outputs": [],
      "stateMutability": "nonpayable",
      "type": "function"
    },
    {
      "inputs": [
        {
          "internalType": "address",
          "name": "",
          "type": "address"
        }
      ],
      "name": "whitelists",
      "outputs": [
        {
          "internalType": "bool",
          "name": "",
          "type": "bool"
        }
      ],
      "stateMutability": "view",
      "type": "function"
    }
  ],
  "bytecode": "0x60806040523480156200001157600080fd5b5062000032620000266200003860201b60201c565b6200004060201b60201c565b62000104565b600033905090565b60008060009054906101000a900473ffffffffffffffffffffffffffffffffffffffff169050816000806101000a81548173ffffffffffffffffffffffffffffffffffffffff021916908373ffffffffffffffffffffffffffffffffffffffff1602179055508173ffffffffffffffffffffffffffffffffffffffff168173ffffffffffffffffffffffffffffffffffffffff167f8be0079c531659141344cd1fd0a4f28419497f9722a3daafe3b4186f6b6457e060405160405180910390a35050565b61263380620001146000396000f3fe608060405234801561001057600080fd5b50600436106100cf5760003560e01c806378c8cda71161008c578063c4ef3e8611610066578063c4ef3e86146101c6578063d0df1374146101e2578063f2fde38b146101fe578063f80f5dd51461021a576100cf565b806378c8cda7146101825780638da5cb5b1461019e578063c0cdd211146101bc576100cf565b806306bedbad146100d45780631e7be210146100f0578063485cc95514610120578063587361161461013c578063713b563f1461015a578063715018a614610178575b600080fd5b6100ee60048036038101906100e99190611e4c565b610236565b005b61010a60048036038101906101059190611d95565b610306565b6040516101179190612190565b60405180910390f35b61013a60048036038101906101359190611e10565b610326565b005b610144610493565b60405161015191906121ab565b60405180910390f35b6101626104b9565b60405161016f91906121c6565b60405180910390f35b6101806104df565b005b61019c60048036038101906101979190611d95565b610567565b005b6101a6610704565b6040516101b39190612122565b60405180910390f35b6101c461072d565b005b6101e060048036038101906101db9190611de7565b6107c3565b005b6101fc60048036038101906101f79190611d95565b610893565b005b61021860048036038101906102139190611d95565b610933565b005b610234600480360381019061022f9190611d95565b610a2b565b005b600360003373ffffffffffffffffffffffffffffffffffffffff1673ffffffffffffffffffffffffffffffffffffffff16815260200190815260200160002060009054906101000a900460ff166102c2576040517f08c379a00000000000000000000000000000000000000000000000000000000081526004016102b99061223c565b60405180910390fd5b80600260006101000a81548173ffffffffffffffffffffffffffffffffffffffff021916908373ffffffffffffffffffffffffffffffffffffffff16021790555050565b60036020528060005260406000206000915054906101000a900460ff1681565b61032e610b3c565b73ffffffffffffffffffffffffffffffffffffffff1661034c610704565b73ffffffffffffffffffffffffffffffffffffffff16146103a2576040517f08c379a00000000000000000000000000000000000000000000000000000000081526004016103999061225c565b60405180910390fd5b600260149054906101000a900460ff16156103f2576040517f08c379a00000000000000000000000000000000000000000000000000000000081526004016103e99061227c565b60405180910390fd5b81600160006101000a81548173ffffffffffffffffffffffffffffffffffffffff021916908373ffffffffffffffffffffffffffffffffffffffff16021790555080600260006101000a81548173ffffffffffffffffffffffffffffffffffffffff021916908373ffffffffffffffffffffffffffffffffffffffff1602179055506001600260146101000a81548160ff0219169083151502179055505050565b600160009054906101000a900473ffffffffffffffffffffffffffffffffffffffff1681565b600260009054906101000a900473ffffffffffffffffffffffffffffffffffffffff1681565b6104e7610b3c565b73ffffffffffffffffffffffffffffffffffffffff16610505610704565b73ffffffffffffffffffffffffffffffffffffffff161461055b576040517f08c379a00000000000000000000000000000000000000000000000000000000081526004016105529061225c565b60405180910390fd5b6105656000610b44565b565b61056f610b3c565b73ffffffffffffffffffffffffffffffffffffffff1661058d610704565b73ffffffffffffffffffffffffffffffffffffffff16146105e3576040517f08c379a00000000000000000000000000000000000000000000000000000000081526004016105da9061225c565b60405180910390fd5b600073ffffffffffffffffffffffffffffffffffffffff168173ffffffffffffffffffffffffffffffffffffffff16141561061d57600080fd5b600360008273ffffffffffffffffffffffffffffffffffffffff1673ffffffffffffffffffffffffffffffffffffffff16815260200190815260200160002060009054906101000a900460ff166106a9576040517f08c379a00000000000000000000000000000000000000000000000000000000081526004016106a09061221c565b60405180910390fd5b6000600360008373ffffffffffffffffffffffffffffffffffffffff1673ffffffffffffffffffffffffffffffffffffffff16815260200190815260200160002060006101000a81548160ff02191690831515021790555050565b60008060009054906101000a900473ffffffffffffffffffffffffffffffffffffffff16905090565b600360003373ffffffffffffffffffffffffffffffffffffffff1673ffffffffffffffffffffffffffffffffffffffff16815260200190815260200160002060009054906101000a900460ff166107b9576040517f08c379a00000000000000000000000000000000000000000000000000000000081526004016107b09061223c565b60405180910390fd5b6107c1610c08565b565b600360003373ffffffffffffffffffffffffffffffffffffffff1673ffffffffffffffffffffffffffffffffffffffff16815260200190815260200160002060009054906101000a900460ff1661084f576040517f08c379a00000000000000000000000000000000000000000000000000000000081526004016108469061223c565b60405180910390fd5b80600160006101000a81548173ffffffffffffffffffffffffffffffffffffffff021916908373ffffffffffffffffffffffffffffffffffffffff16021790555050565b600360003373ffffffffffffffffffffffffffffffffffffffff1673ffffffffffffffffffffffffffffffffffffffff16815260200190815260200160002060009054906101000a900460ff1661091f576040517f08c379a00000000000000000000000000000000000000000000000000000000081526004016109169061223c565b60405180910390fd5b610927610c08565b610930816118c8565b50565b61093b610b3c565b73ffffffffffffffffffffffffffffffffffffffff16610959610704565b73ffffffffffffffffffffffffffffffffffffffff16146109af576040517f08c379a00000000000000000000000000000000000000000000000000000000081526004016109a69061225c565b60405180910390fd5b600073ffffffffffffffffffffffffffffffffffffffff168173ffffffffffffffffffffffffffffffffffffffff161415610a1f576040517f08c379a0000000000000000000000000000000000000000000000000000000008152600401610a16906121fc565b60405180910390fd5b610a2881610b44565b50565b610a33610b3c565b73ffffffffffffffffffffffffffffffffffffffff16610a51610704565b73ffffffffffffffffffffffffffffffffffffffff1614610aa7576040517f08c379a0000000000000000000000000000000000000000000000000000000008152600401610a9e9061225c565b60405180910390fd5b600073ffffffffffffffffffffffffffffffffffffffff168173ffffffffffffffffffffffffffffffffffffffff161415610ae157600080fd5b6001600360008373ffffffffffffffffffffffffffffffffffffffff1673ffffffffffffffffffffffffffffffffffffffff16815260200190815260200160002060006101000a81548160ff02191690831515021790555050565b600033905090565b60008060009054906101000a900473ffffffffffffffffffffffffffffffffffffffff169050816000806101000a81548173ffffffffffffffffffffffffffffffffffffffff021916908373ffffffffffffffffffffffffffffffffffffffff1602179055508173ffffffffffffffffffffffffffffffffffffffff168173ffffffffffffffffffffffffffffffffffffffff167f8be0079c531659141344cd1fd0a4f28419497f9722a3daafe3b4186f6b6457e060405160405180910390a35050565b6000600260009054906101000a900473ffffffffffffffffffffffffffffffffffffffff1673ffffffffffffffffffffffffffffffffffffffff16636fcfc5de6040518163ffffffff1660e01b815260040160206040518083038186803b158015610c7257600080fd5b505afa158015610c86573d6000803e3d6000fd5b505050506040513d601f19601f82011682018060405250810190610caa9190611ec7565b1415610d3357600260009054906101000a900473ffffffffffffffffffffffffffffffffffffffff1673ffffffffffffffffffffffffffffffffffffffff1663e1fd84ee6040518163ffffffff1660e01b8152600401600060405180830381600087803b158015610d1a57600080fd5b505af1158015610d2e573d6000803e3d6000fd5b505050505b6000600260009054906101000a900473ffffffffffffffffffffffffffffffffffffffff1673ffffffffffffffffffffffffffffffffffffffff1663026b1d5f6040518163ffffffff1660e01b815260040160e06040518083038186803b158015610d9d57600080fd5b505afa158015610db1573d6000803e3d6000fd5b505050506040513d601f19601f82011682018060405250810190610dd59190611e75565b90506000600260009054906101000a900473ffffffffffffffffffffffffffffffffffffffff1673ffffffffffffffffffffffffffffffffffffffff1663e040b36e6040518163ffffffff1660e01b815260040160206040518083038186803b158015610e4157600080fd5b505afa158015610e55573d6000803e3d6000fd5b505050506040513d601f19601f82011682018060405250810190610e799190611dbe565b8015610f275750600260009054906101000a900473ffffffffffffffffffffffffffffffffffffffff1673ffffffffffffffffffffffffffffffffffffffff1663478a70006040518163ffffffff1660e01b815260040160206040518083038186803b158015610ee857600080fd5b505afa158015610efc573d6000803e3d6000fd5b505050506040513d601f19601f82011682018060405250810190610f209190611ec7565b8260400151115b15610f335750506118c6565b600260009054906101000a900473ffffffffffffffffffffffffffffffffffffffff1673ffffffffffffffffffffffffffffffffffffffff1663e040b36e6040518163ffffffff1660e01b815260040160206040518083038186803b158015610f9b57600080fd5b505afa158015610faf573d6000803e3d6000fd5b505050506040513d601f19601f82011682018060405250810190610fd39190611dbe565b80156110815750600260009054906101000a900473ffffffffffffffffffffffffffffffffffffffff1673ffffffffffffffffffffffffffffffffffffffff1663478a70006040518163ffffffff1660e01b815260040160206040518083038186803b15801561104257600080fd5b505afa158015611056573d6000803e3d6000fd5b505050506040513d601f19601f8201168201806040525081019061107a9190611ec7565b8260400151105b1561112d57600260009054906101000a900473ffffffffffffffffffffffffffffffffffffffff1673ffffffffffffffffffffffffffffffffffffffff1663478a70006040518163ffffffff1660e01b815260040160206040518083038186803b1580156110ee57600080fd5b505afa158015611102573d6000803e3d6000fd5b505050506040513d601f19601f820116820180604052508101906111269190611ec7565b9050611131565b4290505b6000808360400151146111535782604001518261114e9190612403565b611156565b60005b90506000811415611169575050506118c6565b6000600260009054906101000a900473ffffffffffffffffffffffffffffffffffffffff1673ffffffffffffffffffffffffffffffffffffffff1663fb8b03966040518163ffffffff1660e01b815260040160206040518083038186803b1580156111d357600080fd5b505afa1580156111e7573d6000803e3d6000fd5b505050506040513d601f19601f8201168201806040525081019061120b9190611ec7565b9050600082600260009054906101000a900473ffffffffffffffffffffffffffffffffffffffff1673ffffffffffffffffffffffffffffffffffffffff1663d3de4e2a6040518163ffffffff1660e01b815260040160206040518083038186803b15801561127857600080fd5b505afa15801561128c573d6000803e3d6000fd5b505050506040513d601f19601f820116820180604052508101906112b09190611ec7565b6112ba91906123a9565b9050600081600260009054906101000a900473ffffffffffffffffffffffffffffffffffffffff1673ffffffffffffffffffffffffffffffffffffffff1663e898a8996040518163ffffffff1660e01b815260040160206040518083038186803b15801561132757600080fd5b505afa15801561133b573d6000803e3d6000fd5b505050506040513d601f19601f8201168201806040525081019061135f9190611ec7565b6113699190612322565b9050600260009054906101000a900473ffffffffffffffffffffffffffffffffffffffff1673ffffffffffffffffffffffffffffffffffffffff1663e878ec9b826040518263ffffffff1660e01b81526004016113c6919061229c565b600060405180830381600087803b1580156113e057600080fd5b505af11580156113f4573d6000803e3d6000fd5b505050506000600260009054906101000a900473ffffffffffffffffffffffffffffffffffffffff1673ffffffffffffffffffffffffffffffffffffffff16636fcfc5de6040518163ffffffff1660e01b815260040160206040518083038186803b15801561146257600080fd5b505afa158015611476573d6000803e3d6000fd5b505050506040513d601f19601f8201168201806040525081019061149a9190611ec7565b866114a59190612403565b600260009054906101000a900473ffffffffffffffffffffffffffffffffffffffff1673ffffffffffffffffffffffffffffffffffffffff16631279f91a6040518163ffffffff1660e01b815260040160206040518083038186803b15801561150d57600080fd5b505afa158015611521573d6000803e3d6000fd5b505050506040513d601f19601f820116820180604052508101906115459190611ec7565b61154f9190612403565b828561155b9190612403565b6115659190612378565b9050600260009054906101000a900473ffffffffffffffffffffffffffffffffffffffff1673ffffffffffffffffffffffffffffffffffffffff1663939da540826040518263ffffffff1660e01b81526004016115c2919061229c565b600060405180830381600087803b1580156115dc57600080fd5b505af11580156115f0573d6000803e3d6000fd5b505050506000600260009054906101000a900473ffffffffffffffffffffffffffffffffffffffff1673ffffffffffffffffffffffffffffffffffffffff16630917e7766040518163ffffffff1660e01b815260040160206040518083038186803b15801561165e57600080fd5b505afa158015611672573d6000803e3d6000fd5b505050506040513d601f19601f820116820180604052508101906116969190611ec7565b905060008082116116a85760006116cf565b816305f5e10088856116ba91906123a9565b6116c491906123a9565b6116ce9190612378565b5b905060008083116116e157600061179c565b826305f5e100600260009054906101000a900473ffffffffffffffffffffffffffffffffffffffff1673ffffffffffffffffffffffffffffffffffffffff1663a26e9f906040518163ffffffff1660e01b815260040160206040518083038186803b15801561174f57600080fd5b505afa158015611763573d6000803e3d6000fd5b505050506040513d601f19601f820116820180604052508101906117879190611ec7565b61179191906123a9565b61179b9190612378565b5b9050600260009054906101000a900473ffffffffffffffffffffffffffffffffffffffff1673ffffffffffffffffffffffffffffffffffffffff1663e755c07e60006040518263ffffffff1660e01b81526004016117fa91906121e1565b600060405180830381600087803b15801561181457600080fd5b505af1158015611828573d6000803e3d6000fd5b50505050600260009054906101000a900473ffffffffffffffffffffffffffffffffffffffff1673ffffffffffffffffffffffffffffffffffffffff1663fc181f1383836040518363ffffffff1660e01b81526004016118899291906122b7565b600060405180830381600087803b1580156118a357600080fd5b505af11580156118b7573d6000803e3d6000fd5b50505050505050505050505050505b565b6000600260009054906101000a900473ffffffffffffffffffffffffffffffffffffffff1673ffffffffffffffffffffffffffffffffffffffff1663bbadc93a836040518263ffffffff1660e01b81526004016119259190612122565b60e06040518083038186803b15801561193d57600080fd5b505afa158015611951573d6000803e3d6000fd5b505050506040513d601f19601f820116820180604052508101906119759190611e9e565b90506000600260009054906101000a900473ffffffffffffffffffffffffffffffffffffffff1673ffffffffffffffffffffffffffffffffffffffff16633f10887d6040518163ffffffff1660e01b815260040160206040518083038186803b1580156119e157600080fd5b505afa1580156119f5573d6000803e3d6000fd5b505050506040513d601f19601f82011682018060405250810190611a199190611ec7565b905060008260600151905060006305f5e10084600001518385611a3c9190612403565b611a4691906123a9565b611a509190612378565b90506000600260009054906101000a900473ffffffffffffffffffffffffffffffffffffffff1673ffffffffffffffffffffffffffffffffffffffff1663fbe6f2d66040518163ffffffff1660e01b815260040160206040518083038186803b158015611abc57600080fd5b505afa158015611ad0573d6000803e3d6000fd5b505050506040513d601f19601f82011682018060405250810190611af49190611ec7565b905060008560a00151905060006305f5e10087600001518385611b179190612403565b611b2191906123a9565b611b2b9190612378565b9050600260009054906101000a900473ffffffffffffffffffffffffffffffffffffffff1673ffffffffffffffffffffffffffffffffffffffff1663c1c1298889868985886040518663ffffffff1660e01b8152600401611b9095949392919061213d565b600060405180830381600087803b158015611baa57600080fd5b505af1158015611bbe573d6000803e3d6000fd5b505050505050505050505050565b600081359050611bdb8161258a565b92915050565b600081519050611bf0816125a1565b92915050565b600081359050611c05816125b8565b92915050565b600081359050611c1a816125cf565b92915050565b600060e08284031215611c3257600080fd5b611c3c60e06122e0565b90506000611c4c84828501611d80565b6000830152506020611c6084828501611d80565b6020830152506040611c7484828501611d80565b6040830152506060611c8884828501611d80565b6060830152506080611c9c84828501611d80565b60808301525060a0611cb084828501611d80565b60a08301525060c0611cc484828501611d80565b60c08301525092915050565b600060e08284031215611ce257600080fd5b611cec60e06122e0565b90506000611cfc84828501611d80565b6000830152506020611d1084828501611d80565b6020830152506040611d2484828501611d80565b6040830152506060611d3884828501611d80565b6060830152506080611d4c84828501611d80565b60808301525060a0611d6084828501611d80565b60a08301525060c0611d7484828501611d80565b60c08301525092915050565b600081519050611d8f816125e6565b92915050565b600060208284031215611da757600080fd5b6000611db584828501611bcc565b91505092915050565b600060208284031215611dd057600080fd5b6000611dde84828501611be1565b91505092915050565b600060208284031215611df957600080fd5b6000611e0784828501611bf6565b91505092915050565b60008060408385031215611e2357600080fd5b6000611e3185828601611bf6565b9250506020611e4285828601611c0b565b9150509250929050565b600060208284031215611e5e57600080fd5b6000611e6c84828501611c0b565b91505092915050565b600060e08284031215611e8757600080fd5b6000611e9584828501611c20565b91505092915050565b600060e08284031215611eb057600080fd5b6000611ebe84828501611cd0565b91505092915050565b600060208284031215611ed957600080fd5b6000611ee784828501611d80565b91505092915050565b611ef981612437565b82525050565b611f0881612449565b82525050565b611f17816124a3565b82525050565b611f26816124c7565b82525050565b611f35816124eb565b82525050565b6000611f48602683612311565b91507f4f776e61626c653a206e6577206f776e657220697320746865207a65726f206160008301527f64647265737300000000000000000000000000000000000000000000000000006020830152604082019050919050565b6000611fae602183612311565b91507f4163636f756e7420646f65736e7420657869737420696e2077686974656c697360008301527f74000000000000000000000000000000000000000000000000000000000000006020830152604082019050919050565b6000612014602b83612311565b91507f4e6f7420617574686f72697573656420746f206163636573732074686520726560008301527f6261736520656e67696e650000000000000000000000000000000000000000006020830152604082019050919050565b600061207a602083612311565b91507f4f776e61626c653a2063616c6c6572206973206e6f7420746865206f776e65726000830152602082019050919050565b60006120ba602183612311565b91507f52656261736520456e67696e6520616c726561647920696e697469616c697a6560008301527f64000000000000000000000000000000000000000000000000000000000000006020830152604082019050919050565b61211c81612499565b82525050565b60006020820190506121376000830184611ef0565b92915050565b600060a0820190506121526000830188611ef0565b61215f6020830187612113565b61216c6040830186612113565b6121796060830185612113565b6121866080830184612113565b9695505050505050565b60006020820190506121a56000830184611eff565b92915050565b60006020820190506121c06000830184611f0e565b92915050565b60006020820190506121db6000830184611f1d565b92915050565b60006020820190506121f66000830184611f2c565b92915050565b6000602082019050818103600083015261221581611f3b565b9050919050565b6000602082019050818103600083015261223581611fa1565b9050919050565b6000602082019050818103600083015261225581612007565b9050919050565b600060208201905081810360008301526122758161206d565b9050919050565b60006020820190508181036000830152612295816120ad565b9050919050565b60006020820190506122b16000830184612113565b92915050565b60006040820190506122cc6000830185612113565b6122d96020830184612113565b9392505050565b6000604051905081810181811067ffffffffffffffff821117156123075761230661255b565b5b8060405250919050565b600082825260208201905092915050565b600061232d82612499565b915061233883612499565b9250827fffffffffffffffffffffffffffffffffffffffffffffffffffffffffffffffff0382111561236d5761236c6124fd565b5b828201905092915050565b600061238382612499565b915061238e83612499565b92508261239e5761239d61252c565b5b828204905092915050565b60006123b482612499565b91506123bf83612499565b9250817fffffffffffffffffffffffffffffffffffffffffffffffffffffffffffffffff04831182151516156123f8576123f76124fd565b5b828202905092915050565b600061240e82612499565b915061241983612499565b92508282101561242c5761242b6124fd565b5b828203905092915050565b600061244282612479565b9050919050565b60008115159050919050565b600061246082612437565b9050919050565b600061247282612437565b9050919050565b600073ffffffffffffffffffffffffffffffffffffffff82169050919050565b6000819050919050565b60006124ae826124b5565b9050919050565b60006124c082612479565b9050919050565b60006124d2826124d9565b9050919050565b60006124e482612479565b9050919050565b60006124f682612499565b9050919050565b7f4e487b7100000000000000000000000000000000000000000000000000000000600052601160045260246000fd5b7f4e487b7100000000000000000000000000000000000000000000000000000000600052601260045260246000fd5b7f4e487b7100000000000000000000000000000000000000000000000000000000600052604160045260246000fd5b61259381612437565b811461259e57600080fd5b50565b6125aa81612449565b81146125b557600080fd5b50565b6125c181612455565b81146125cc57600080fd5b50565b6125d881612467565b81146125e357600080fd5b50565b6125ef81612499565b81146125fa57600080fd5b5056fea264697066735822122094e4756ad0e7430c664df8aada16f7173d0884fe8dd6c3c49be6a66ff9b3470564736f6c63430008000033",
  "linkReferences": {},
  "deployedLinkReferences": {}
}